:020000040800F2
:10000000B8060020690200087102000873020008A7
:10001000750200087702000879020008000000005D
:100020000000000000000000000000007B0200084B
:100030007D020008000000007F020008E92200089D
:10004000830200088302000883020008830200087C
:10005000830200088302000891160008D1160008E8
:10006000830200088302000883020008830200085C
:10007000830200088302000883020008830200084C
:10008000830200088302000883020008830200083C
:10009000830200088302000883020008830200082C
:1000A000830200088302000883020008830200081C
:1000B00071230008712400088302000883020008ED
:1000C00083020008830200088302000883020008FC
:1000D00083020008830200088302000883020008EC
:1000E00083020008830200088302000800F002F87F
:1000F00000F0AAF814A696E8000CB244B344DA451E
:1001000001D100F0A1F8BAE80F000FA696E8300080
:10011000A5EB040504EB0607AAEB0704A7F101070A
:100120004FEA15154FEA3414A4F10104AC4201D38F
:1001300000F08AF813F0010F18BFFB1A43F0010317
:1001400000F001F8DBE718473040000050400000A5
:10015000103A24BF78C878C1FAD8520724BF30C8F3
:1001600030C144BF04680C60704700007047000055
:100170000023002400250026103A28BF78C1FBD8B0
:10018000520728BF30C148BF0B6070476E2900F08E
:100190001382702900F05583662903F06087652972
:1001A00003F05D87672903F05A87612903F05987B7
:1001B00003681B0A28BF41F08001692900F0C08153
:1001C000642900F0BD81752900F0BA816F2900F023
:1001D000E382782900F02183E92900F07D82E42977
:1001E00000F07A82F52900F07782EF2900F0E082B2
:1001F000F82900F020830368DB0928BF41F0800163
:10020000632901F04380732901F04880E32901F05C
:100210005380F32901F05880002070471FB59DE8F6
:10022000030000F0EBF801F0ADF80400002000211D
:1002300002F028FF401C60600020002102F00CFF4B
:10024000E0601FBD10B510BD01F06EF81146FFF75C
:10025000E5FF02F08BFA01F04BF903B4FFF7F2FF70
:1002600003BC01F07BF900000948804709480047BA
:10027000FEE7FEE7FEE7FEE7FEE7FEE7FEE7FEE756
:10028000FEE7FEE704480549054A064B70470000B3
:1002900009230008ED000008B8000020B80600207F
:1002A000B8020020B802002070B5064600F08AF8B7
:1002B000056806F10B0020F00704B4429CBF002043
:1002C00070BD2B466A68BAB11068A04210D304F121
:1002D000080188423CBF5068586007D35168101924
:1002E00041601168091B016058601460101D70BDE9
:1002F00013465268002AE7D12146284600F06AF8E2
:100300000028DED170BD70B50446051F00F05AF814
:100310000068002C14BF446870BD002C18BFAC42AC
:100320003CBF20466468F8D301680A18AA4218BF87
:10033000456003D12A6805461144016028684119C7
:10034000A1421CBF6C6070BD61686960216808448F
:10035000286070BD0FB41CB5084B06AA7B446946E3
:100360000090059800F041F904460020694600F02D
:100370004FF920461CBC5DF814FB0000B1020000E0
:1003800010B5431C02E010F8011B71B18107FAD1CE
:100390004FF0013202C88C1A8C4314EAC211F9D012
:1003A000C01A0A0603D0C01E10BDC01A10BD0A0430
:1003B00001D0801E10BD0902FCD0401E10BD704748
:1003C0007047704700487047100000207047704722
:1003D0007047704738B504460A4600206946AFF3B7
:1003E0000080002808BF38BD02460099204600F072
:1003F000FFFA012038BD012000F08EBFF8B5AFF341
:100400000080054600200C460C2000BF0646A819B7
:10041000A0420DD9324669460020AFF300800700A4
:1004200008BF00F079FF0098A04218BF0546C41924
:10043000FFF7C8FF05600746F01D20F007004619CA
:10044000284600F00AF8B44208BFF8BDA21B3146A6
:100450003868BDE8F84000F0CBBA00210160416087
:1004600070470C20704710B500F0BEFA006810BD50
:1004700010B5044600F0B8FA046010BD70B504462B
:1004800085690068C10601D5302600E02026C00736
:1004900007D070BDD4E9012130469047206A401C46
:1004A00020626D1EF6D570BD70B504468569007872
:1004B000C00707D170BDD4E9012120209047206AF0
:1004C000401C20626D1EF6D570BD09684A0501D535
:1004D00040B27047C905FCD500B2704709684A05AB
:1004E00001D5C0B27047C905FCD580B2704770B560
:1004F0000C460546012A05D02878800600D5EA6911
:10050000002302E0012305E05B1C934202D2E05C81
:100510000028F9D1A869E618C01AA861286A184409
:1005200028622846FFF7AAFF04E0D5E9012114F864
:10053000010B9047B442F8D32846FFF7B5FF70BDD2
:100540002DE9F0410646002410687529314616A5AC
:1005500010D0FFF7BAFF002802DA404213A507E0E7
:1005600031688A0701D512A502E0490704D511A513
:10057000012401E0FFF7B2FF00210A2206F124075F
:1005800009E0B0FBF2FCB0FBF2F302FB1C003030E0
:1005900078541846491C0028F3D123462A46304691
:1005A000BDE8F04100F083BA000000002D0000001B
:1005B0002B0000002000000011680268006A53054B
:1005C00001D508700AE0D30501D5088006E01306BE
:1005D00003D5C217C1E9000200E00860012070479E
:1005E00001694A1C02610878704700B58FB0CDE9F7
:1005F00001310021059105497944CDE903101146E7
:10060000684600F029F90FB000BD0000E5FFFFFFCC
:100610000A6802F8010B0A60704700002DE9FF5FCD
:1006200015468A460446DFF8AC80F8440027D8E92E
:1006300000103E46CDE9001010E03AF816106A4668
:1006400002A800F045FE411C07D02178890603D599
:10065000E269391891420DD80744761C207880064B
:1006600002D5E069B84205DDAE42E6DB3AF8160095
:100670000028E2D1A069C01BA0612046FFF7FEFE62
:10068000D8E90010CDE90010002017E03AF8181062
:100690006A4602A800F01CFEB0F1FF3F81460BD075
:1006A00000250DF1080B05E0D4E901211BF8050038
:1006B00090476D1C4D45F7D308F10100B0428046CC
:1006C000E4DB206A384420622046FFF7EDFEBDE8F7
:1006D000FF9F00003A3A00002DE9F0418046D21D0C
:1006E00022F007020025D2E90002F52915A614D050
:1006F000011E72F1000106DA0023D0EB030063EB68
:10070000020211A608E0D8F800108B0701D50FA649
:1007100002E0490701D50EA601251146002408F183
:10072000240704E000F07EF930323A55641C50EAA8
:100730000102F7D12B46324621464046BDE8F04142
:1007400000F0B5B9000000002D0000002B000000F3
:100750002000000030B4002100F1240408E002F081
:100760000705D208303542EA4372DB086554491C5C
:1007700052EA0305F3D10468002310A2250708D527
:1007800004F020040C4304D0C46901230CA2641EAD
:10079000C46130BC00F08BB910B504462146106826
:1007A000FFF79CFE02462046BDE810400023D1E73B
:1007B000D21D22F00701D1E90023CBE700000000A1
:1007C00030000000F0B40D460188090502D5214C27
:1007D0007C4402E01F4C7C440E34002100F12406CE
:1007E00008E002F00F071209E75D42EA03721B09F5
:1007F0007754491C52EA0307F3D102780023120709
:1008000004D5702D06D009B1022311342246F0BC64
:1008100000F04DB901231034F8E770B504460D46D9
:1008200021461068FFF75AFE024629462046BDE8D9
:1008300070400023C6E7D21D22F00703D3E900234E
:10084000C0E70368126843F0200303600823C36114
:100850000023B7E79C3800002DE9F05F8946044685
:100860004FF0000ADFF874B1FB44C0F820A0204626
:10087000E1688847002874D0252806D0D4E90121F2
:100880009047206A401C2062F1E700265F46204620
:10089000E16888472028054607DB312D05D2781905
:1008A00010F8200C08B10643F1E7B00701D526F097
:1008B0000406C4F81CA00027C4F818A02A2D09D0EB
:1008C000284602F09BFB38B304EB8708303DC8F89C
:1008D000185019E059F8041B204604EB8702916177
:1008E000E1688847012F054618D1E069002820DA21
:1008F00026F020061DE0D8F8180000EB800005EB7C
:1009000040003038C8F818002046E168884705469E
:1009100002F074FB0028EED1012F0AD02E2D08D151
:100920002046E16888477F1C0546022F46F02006D6
:10093000C4DBA069002803DA404246F00106A0614A
:10094000F00701D026F010066C2D0BD0682D09D0D1
:100950004C2D39D06A2D35D0742D35D07A2D33D029
:1009600016E038E0E1682F4620468847B842054641
:1009700009D16C2F26D04FF48060E16806432046F1
:100980008847054604E06C2F1AD04FF48070064368
:100990000DB3A5F14100192802D8203546F40066B0
:1009A0004A462946204626604E46FFF7EFFB80B1B7
:1009B00001280BD0F61D26F0070000F1080956E7C4
:1009C0004020E4E78020D8E70020D6E706F10409BC
:1009D0004DE7284652E7206ABDE8F09F2C3800001A
:1009E00000487047080000200048704708000020B9
:1009F000034640688C46002818BF88423CBF034627
:100A00004068F8D318681844884207D00CF10300F6
:100A100020F00700001D411A521A0146081D0A6005
:100A2000FFF771BC30B5B0F10A0271F100034FEA73
:100A3000900E4EEA817EB0EB0E0061EB91014FEA21
:100A4000101E4EEA017E10EB0E0041EB11114FEA31
:100A5000102E4EEA016E10EB0E0041EB11214FEA11
:100A6000104E4EEA014E10EB0E0041EB11414018C2
:100A700041F100014FEAD00040EA41704FEAD10154
:100A80004FEA810444EA907410EB800544EB0104C2
:100A90006D1944EB0404521BA3414FF0000348BFFF
:100AA0000A3200D530BD401C41F1000130BD2DE9B6
:100AB000F0470D4699469246044600F12408016825
:100AC000880604D5E06921F01001216000E00120D2
:100AD000A84201DD471B00E00027A1697A1902EB5B
:100AE0000900081AA0612078C00602D42046FFF74A
:100AF000C5FC002608E0D4E901211AF80600904759
:100B0000206A401C761C20624E45F4DB2078C0062B
:100B10000AD52046FFF7B2FC06E0D4E901213020D7
:100B20009047206A401C2062381EA7F10107F4DCC0
:100B300007E0D4E9012118F805009047206A401C1D
:100B40002062281EA5F10105F3DC2046FFF7ACFC6E
:100B50002078000602D50220BDE8F0870120FBE7DF
:100B60002DE9FF4F0C461E464FF0FF378BB0D2E900
:100B70000001DDF860800A908A46C1F30A5505B984
:100B80003D46002108464FF00000BAF1000F00F486
:100B9000400005DA00EB80004FF4400101EA50000C
:100BA0004FEA9059B9F1010F00DDB9460A9850EAB1
:100BB0004A000ED044F61050A5F2FF3545432F14DD
:100BC000B8F1000F1ED07542291E1EDDC9F10002CA
:100BD0001CE0B8F1010F4FF0000001D0302103E01C
:100BE000F24305E02154401CB042FBDB30460022BA
:100BF000002121540B99C1F80880C1E900200FB0F1
:100C0000BDE8F08FBD1B6D1CDEE74A4600DA694285
:100C100006A800F0FBFB06AB93E8070003AB83E8F4
:100C2000070050460A9901F00DFE8DE80700A0F577
:100C300000501F3800900398002D0ADD42F21F017A
:100C40004A460844002303A90390684602F076F858
:100C500009E0A0F500504A461F38002303A903907D
:100C6000684602F080F88DE807000004000C03D00D
:100C70004FF0FF30410800E01046B8F1000F03D0FC
:100C80000022009215461EE0751E05D4FFF7CAFE2D
:100C9000303262556D1EF9D5B3460122084302D0A9
:100CA00000227F1C04E02078302801D100227F1E22
:100CB000002A099784D01DE0112D07DAFFF7B2FE54
:100CC000303262556D1C50EA0102F5D1084302D062
:100CD0000098C8B10EE00021681E05E0235C625C4C
:100CE00063542254401E491C8142F7DBAB46A81BCB
:100CF000401E0990002004F80B000B98099AC0F8D8
:100D00000880C0E9002B7AE711264FF0000857E76A
:100D10002DE9F04F88460446D21D22F0070191B01C
:100D2000D1E90001CDE90A0102F054F902460B981D
:100D3000C00F01D02D2007E02068810701D52B20AE
:100D400002E0202101EAC000032A099001D0072A0D
:100D500005DB03464146204600F018FB0BE12078F6
:100D6000800601D5E06900E00620B8F1650F8146F4
:100D700006D0B8F1660F18D0B8F1670F70D131E026
:100D80000020B9F1110F009001DB112301E009F1FE
:100D900001030AAA01A90CA8FFF7E2FEDDE90C7025
:100DA000002609F10105834647E001204B460090EB
:100DB0004FF000470AAA01A90CA8FFF7D1FEDDE910
:100DC0000DB00C995D46002610B909F101000D180F
:100DD000B9EB050003D4C0F1FF3609F10105A5EB1D
:100DE00009002BE0B9F1010F01DA4FF001090020F1
:100DF000B9F1110F0090484601DD112300E00346D0
:100E00000AAA01A90CA8FFF7ABFEDDE90C704D465C
:100E100000268346207800070AD4AB4500DA5D46F9
:100E200001A8012D04DD411911F8011C302907D05A
:100E30004F4502DA17F1040F04DA012082460FE071
:100E40006D1EEEE7002F02DCED1B3E4403E0781C34
:100E5000A84200DD7D1CB81B00F1010A4FF00047DD
:100E60002078000703D4AA4501DB4FF0FF3A0021A8
:100E7000B7F1004F0DF143088DF8431024D0022044
:100E80002B23002F01DA7F422D230A21021EA0F11D
:100E9000010000DC5FB197FBF1FC97FBF1F201FB75
:100EA0001C7C17460CF1300C08F801CDEEE7A8F1D8
:100EB000010003702188090501D5452100E0652165
:100EC000A0F1010800F8011C09980FA9A1EB08077F
:100ED000FF1D00B10120411901EBEA70A1693844FE
:100EE000081A401EA0612078C00602D42046FFF7F1
:100EF000C5FA099828B1D4E901219047206A401C1D
:100F000020622078C00622D52046FFF7B7FA1EE0FF
:100F1000002E04DBB34502DD01A8805D00E0302037
:100F2000D4E901219047206A401C2062761CAAF176
:100F300001005FEA000A0AD100F024FAC0680168E3
:100F4000405CD4E901219047206A401C2062281EA1
:100F5000A5F10105DCDC07E0D4E9012118F8010B5B
:100F60009047206A401C2062381EA7F10107F3DC7D
:100F70002046FFF799FA032011B041E62DE9F04F22
:100F800004460D46D21D22F0070089B0D0E9009733
:100F90004846394602F01EF80246F80F01D02D23CC
:100FA00007E02068810701D52B2302E0202101EA18
:100FB000C0038DF820300BB1012000E00020032A8F
:100FC000824601D0072A04DB2946204600F0DEF9DC
:100FD0003FE12078800601D40D2500E0E569C7F3E4
:100FE0000A560D2D49DA00214FEA175B08464FF0EB
:100FF0000000002F00F4400007DA00EB80004FF4FF
:10100000400100EBD07001EA60008115012901DD8B
:101010004FF0FF3100224FEA850CBCF1180F06D3C8
:101020001346ACF118004FF08052C24003E04FF479
:10103000801323FA0CF30CF10C0CBCF1200F04D339
:10104000ACF1200C09FA0CF001E007FA0CF00029D1
:101050004FF0004801DD18B90FE00ED140450CD328
:1010600019EB02095F4121B9404502D19F4329EAAA
:101070000209BBEB175F00D0761C2088000502D563
:101080007B48784402E07A487844193808AA30232B
:1010900002F80A30037C0AF10101002E0AF1020A6B
:1010A00053546A4602DC4FF0300101E04FF0310149
:1010B0004FF001088DF8001002D0A6F2FF3603E0D1
:1010C00059EA470100D06B4E002D02DC2178090758
:1010D00004D54FF002082E218DF80110C4460021DE
:1010E0000BE0C7F303433F01C35C491C6D1E02F8CC
:1010F0000830052908F1010801DA002DF1DC002192
:101100000CE000EB1973491C1B786D1E082902F8CE
:1011100008304FEA091908F1010801DA002DF0DC66
:1011200021688B0602D516E0A8F10108E04505DD2F
:1011300002EB080313F8013C302BF5D0B8F1000F97
:1011400009DD02EB080313F8013C2E2B03D109073C
:1011500001D4A8F10108002D05DD3E2102F8081098
:101160006D1E08F10108407C002E02F8080008F10D
:10117000010804DA2D20764202F8080002E02B2054
:1011800002F808000A214FF47A70864208F101083B
:101190000BDB96FBF0F3303302F8083096FBF0F3EC
:1011A00008F1010800FB136601E0642E0CDB6420EB
:1011B00096FBF0F3303302F8083096FBF0F308F1B9
:1011C000010800FB136601E00A2E06DB96FBF1F036
:1011D000303002F8080008F1010896FBF1F001FB3D
:1011E0001060303002F80800A16908F1010808EB2E
:1011F000050202EB0A00081AA0612078C00602D49A
:101200002046FFF73BF9216A08AE01EB0A00206295
:1012100004E0D4E9012116F8010B9047BAF1010A64
:10122000F7D22078C00602D52046FFF727F96E4690
:1012300009E016F8010B3E280FD0D4E901219047B0
:10124000206A401C2062B8F10108F2D22046FFF764
:101250002BF909B00320BDE8F08F206A28442062F2
:1012600003E0D4E90121302090476D1EEBD3F8E76D
:101270003630000002FCFFFF10B5436913B1AFF335
:10128000008001E0FFF733F9012010BD127800F172
:1012900024010A7000224A700122EDE711684FF024
:1012A000FF32E9E710B5436913B1AFF3008001E005
:1012B000FFF7B4F9012010BD128800F124018284E7
:1012C0000022C2840122EDE711684FF0FF32E9E706
:1012D0002DE9F04116460C46054600F04BF8036830
:1012E00093F80101012807D0FF2C12D8185D80B1B6
:1012F00001202C70BDE8F081D3F807013246214669
:1013000003F20713C7182846BC46BDE8F041002386
:1013100060474FF0FF30EDE710B500F0F7F8BDE89B
:10132000104000F0EEB870477546FFF759FBAE4627
:1013300005006946534620F00700854618B020B5E1
:10134000FEF7A0FFBDE820404FF000064FF0000779
:101350004FF000084FF0000BAC46ACE8C009ACE819
:10136000C009ACE8C009ACE8C00921F007018D460E
:101370007047000010B500F005F8001D10BD00BF5B
:10138000051D000000487047280000202DE9F041AD
:101390001F46044603260168072A01F4006004DBA7
:1013A00008B116A505E016A503E008B115A500E0F3
:1013B00015A521F010002060A069C01EA0610FB12A
:1013C000401EA0612046FFF759F84FB1D4E9012132
:1013D00038469047206A401C2062C01C206206E00C
:1013E000206AFAE7D4E9012115F8010B9047761E2F
:1013F000F8D22046FFF758F8BDE8F0814E414E0084
:101400006E616E00494E4600696E66002DE9F04738
:10141000814616468AB0354878440DC88DE80D00DF
:1014200032487844801C03AC0DC884E80D0041F6B6
:101430009B300844372190FBF1F290FBF1F5A5F1C8
:10144000800501FB12041B3C02D56442012000E030
:101450000020DFF898A080460027FA44AAF1BE0ACF
:101460000EE0E0070AD03246684607EB4701012349
:101470000AEB810101F077FC8DE8070064107F1C06
:10148000002CEED1194F7F44AE3F19E0E80715D08C
:1014900007EB04100DF1180A90E80E008AE80E0020
:1014A000C068F04201D1981908903246012306A97C
:1014B00003A801F058FC03AB83E807006D10641C1F
:1014C000002DE3D14FF0010332466946B8F1000F19
:1014D00003A802D001F032FC01E001F044FCC9E9AC
:1014E0000001C9F808200AB0BDE8F087302D0000DF
:1014F00010B50446AFF300802046BDE81040FEF76B
:10150000ACBE002801D000F029B8704710B5012802
:1015100005D0002103A000F027F8012010BD09A18B
:10152000F8E7000053494752544D454D3A204F7556
:1015300074206F662068656170206D656D6F7279CB
:10154000000000003A2048656170206D656D6F7283
:101550007920636F72727570746564000149182098
:10156000ABBEFEE72600020070B505460C460A2019
:1015700000E06D1C00F052F835B128780028F8D151
:1015800002E0641C00F04AF814B120780028F8D179
:10159000BDE870400A2000F041B800004FF0013C67
:1015A00050F8042B51F8043B9A4221D1A2EB0C03D2
:1015B000934313EACC1317D150F8042B51F8043B92
:1015C0009A4215D1A2EB0C03934313EACC130BD12F
:1015D00050F8042B51F8043B9A4209D1A2EB0C03BA
:1015E000934313EACC13DBD04FF00000704700BFE9
:1015F000D01A01BAB1FA81F101F0180122FA01F012
:10160000CB40DBB2C0B2C01AC1F120012CFA01F309
:10161000D11A914311EAC311E6D1704708B5694662
:101620008DF800000320ABBE08BD000081B0009023
:10163000009840F2AC01C2F2000108604EF21401C1
:10164000CEF2000142F2273008604EF21801CEF2CD
:101650000001002008604EF21001CEF2000108687F
:1016600040F002000860086840F001000860FFE7F1
:1016700040F2AC00C2F20000006808B1FFE7F7E7F3
:101680004EF21001CEF200010020086001B0704758
:1016900040F21440C4F201000068C007B8B1FFE78F
:1016A00040F2A000C2F20000007838B9FFE740F233
:1016B000A001C2F2000101200870FFE740F21441CE
:1016C000C4F20101086840F001000860FFE77047BC
:1016D00080B598B040F21440C4F201000068800761
:1016E000002840F17181FFE740F26802C2F2000277
:1016F00004923B200621039100F0C2FC039940F2C2
:101700009002C2F200020692432000F0B9FC049855
:101710000278417841EA0221ADF85E108278C17802
:1017200041EA0221ADF85C100179407940EA0120DC
:10173000ADF85A00BDF95E0002F038FB02F07EFA07
:1017400000220E920023C4F2D003059301F096FD0F
:1017500001F0AEFC40F27001C2F200010891086095
:10176000BDF95C0002F022FB02F068FA059B0E9ABC
:1017700001F084FD01F09CFC40F27401C2F2000112
:1017800009910860BDF95A0002F010FB02F056FA08
:10179000059B0E9A01F072FD01F08AFC014640F2B1
:1017A0007800C2F200000C900160006802F046FA76
:1017B00049F69A12C9F6991249F69913CBF6C973EC
:1017C00001F0A8FC01F074FC0C9A01460698116027
:1017D0000278417841EA0221ADF858108278C17848
:1017E00041EA0221ADF856100179407940EA012022
:1017F000ADF85400BDF9580002F0D8FA02F01EFA14
:101800000E9A46F20003C4F25003079301F036FD2E
:1018100001F04EFC40F28801C2F200010F91086015
:10182000BDF9560002F0C2FA02F008FA079B0E9AC0
:1018300001F024FD01F03CFC40F28C01C2F20001F9
:1018400010910860BDF9540002F0B0FA02F0F6F908
:10185000079B0E9A01F012FD01F02AFC089902463E
:10186000099840F29803C2F2000313931A600968C2
:101870000A910168084602F0B1FA0A990B900846ED
:1018800002F0ACFA0B9902F005FA01460C980D91A2
:101890000168084602F0A2FA0D9902F0FBF902F085
:1018A000CDF901F0B2FB0E9A0023C4F2590301F006
:1018B000F3FE01F0FDFB0F990246109840F2B003D1
:1018C000C2F200031A60096811910168084602F02B
:1018D00085FA11991290084602F080FA129902F0E6
:1018E000D9F90146139814910168084602F076FA76
:1018F000149902F0CFF902F0A1F901F086FB01F092
:10190000D7FB40F2B401C2F20001086000F04AFBCC
:1019100000F0A8FEF0B1FFE740F20001C2F20001C2
:1019200000200290087040F28401C2F2000101918F
:101930004FF4967008600120009000F031FD00988F
:1019400000F07AFD40F6B830FFF770FE019902987A
:10195000086006E040F20001C2F2000101200870B8
:10196000FFE740F29C00C2F20000006840B1FFE7D0
:1019700040F2A801C2F20001086805300860FFE7E4
:1019800000F070FEF8B9FFE740F2A800C2F20000D4
:101990000068B0F5FA7F16DDFFE740F2A801C2F259
:1019A00000010020086040F29C01C2F200010860C2
:1019B00040F27C01C2F20001086040F28001C2F2F4
:1019C00000010860FFE7FFE740F21441C4F20101A3
:1019D000086840F00200086018B080BD80B582B091
:1019E00041F21801C4F20201086840F005000860E5
:1019F00040F60001C4F20101086820F0FF00086011
:101A0000086840F04800086040F60C01C4F201018B
:101A1000086820F0010008600821C4F2010108688C
:101A200020F00F000860086820F0F000086040F225
:101A30000041C4F20101086840F00300086040F270
:101A40000440C4F201000021016040F20842C4F2E7
:101A50000102106820F00300106040F20C42C4F252
:101A60000102106840F0030010600620009000F0B2
:101A7000B5FD009800F09AFD009800F067FD072082
:101A80000190022100F0AAFD019800F05FFD02B074
:101A900080BD000080B582B00720019000F03AFDC3
:101AA00041F21C01C4F20201086840F08050086055
:101AB00047F20001C4F20001086840F00400086029
:101AC00047F20402C4F20002106840F48070106013
:101AD0004EF61052CEF20002106840F00400106082
:101AE000086820F002000860086840F00100086003
:101AF00030BF00F095FB019800F028FD02B080BDDA
:101B000041F21C01C4F20201086840F400100860B0
:101B100041F21801C4F20201086840F008000860B0
:101B2000086840F00100086040F60041C4F201017D
:101B3000086820F07F400860086840F07F40086037
:101B400040F60C41C4F20101086840F0C000086092
:101B500045F20441C4F200012420088045F2084205
:101B6000C4F20002108840F02C00108045F21C42A4
:101B7000C4F20002108800F470401080108840F415
:101B800000401080108840F03C00108045F2204258
:101B9000C4F2000225201080088840F4806008808C
:101BA00045F20041C4F20001088840F001000880BD
:101BB000088840F4806008807047000080B584B0D9
:101BC0008DF80F008DF80E10029200F0F9F800F079
:101BD00081F89DF80F004000013045F21041C4F239
:101BE00000010880FFE745F21440C4F200000088BD
:101BF0008007002801D4FFE7F5E745F21440C4F25E
:101C00000000008845F21840C4F20000008800205F
:101C10008DF80700FFE79DF807009DF80E100139C9
:101C200088421BDAFFE7FFE745F21440C4F20000E8
:101C300000884006002801D4FFE7F5E745F2104090
:101C4000C4F20000008802999DF807208854FFE73D
:101C50009DF8070001308DF80700DCE700F0A6F8DA
:101C600000F04CF8FFE745F21440C4F20000008891
:101C70004006002801D4FFE7F5E745F21040C4F222
:101C80000000008802999DF80720885404B080BDA8
:101C900081B08DF803009DF8030045F21041C4F2B5
:101CA00000010880FFE745F21440C4F200000088FC
:101CB0008007002801D4FFE7F5E745F21440C4F29D
:101CC0000000008845F21840C4F20000008801B00E
:101CD0007047000045F20041C4F20001088840F45A
:101CE00080700880FFE745F21440C4F200000088CD
:101CF000C00708B9FFE7F6E77047000045F200416A
:101D0000C4F20001088840F40070088070470000A9
:101D100081B08DF80300FFE745F21440C4F20000E3
:101D200000880006002801D4FFE7F5E79DF80300CE
:101D300045F21041C4F200010880FFE745F214406B
:101D4000C4F2000000884007002801D4FFE7F5E74F
:101D500001B0704780B584B08DF80F0002918DF806
:101D60000720FFF7B7FF9DF80F004000C0B2FFF754
:101D70008FFF00208DF80600FFE79DF806009DF814
:101D8000071088420DDAFFE702989DF80610405CC4
:101D9000FFF7BEFFFFE79DF8060001308DF8060053
:101DA000EBE7FFF7ABFF04B080BD000045F2004158
:101DB000C4F20001088820F48060088070470000A9
:101DC00045F20041C4F20001088840F480600880B8
:101DD0007047000080B582B08DF807008DF80610BE
:101DE0008DF80520FFF776FF9DF807004000C0B290
:101DF000FFF74EFF9DF80600FFF78AFF9DF80500EC
:101E0000FFF786FFFFF77AFF02B080BD80B582B092
:101E100000210191084600F039F844F26410C0F640
:101E2000000000F09DF80199012000F02FF844F225
:101E30006A10C0F6000000F093F802B080BD000008
:101E400080B5012000F042F80220FFF7EFFB80BDD3
:101E500080B582B032200190FFF7E8FB332000F01C
:101E600035F8019800F032F8282000F02FF80C2007
:101E700000F02CF8062000F029F8012000F026F8E8
:101E80000220FFF7D3FB02B080BD000080B582B016
:101E90008DF807008DF806109DF8070038B9FFE7A8
:101EA0009DF806008030C0B200F010F80CE09DF8FC
:101EB0000700012807D1FFE79DF80600C030C0B237
:101EC00000F004F8FFE7FFE702B080BD80B582B004
:101ED0008DF807009DF8070000F0F00004308DF841
:101EE00003009DF8070000F0F0008DF804009DF855
:101EF0000700000104308DF805009DF8070000017F
:101F00008DF8060027200DF103010422FFF722FFC0
:101F100002B080BD80B582B08DF807009DF8070043
:101F200000F0F00005308DF803009DF8070000F088
:101F3000F00001308DF804009DF807000001053025
:101F40008DF805009DF80700000101308DF80600AE
:101F500027200DF103010422FFF7FCFE02B080BD33
:101F600080B584B0039000208DF80B00FFE79DF84A
:101F70000B0001900398FEF703FA0146019888428E
:101F80000DD2FFE703989DF80B10405CFFF7C2FFEE
:101F9000FFE79DF80B0001308DF80B00E7E704B078
:101FA00080BD000080B586B007200390FEF77CF965
:101FB00005900598009040F2B000C2F20000006861
:101FC00001F03CFE024600980B4644F27111C0F647
:101FD00000010291FEF7BEF900200621FFF756FF2F
:101FE0000598FFF7BDFF0598FEF78DF90398FEF7FA
:101FF0005BF904900498019040F2B400C2F2000032
:10200000006801F01BFE024601980B460299FEF79C
:10201000A1F903990120FFF739FF0498FFF7A0FF0A
:102020000498FEF770F906B080BD000080B582B05C
:102030006820009019210422FFF7CCFE00981A2195
:102040000522FFF7C7FE00981B210822FFF7C2FEFA
:1020500000981C210022FFF7BDFE00983721802246
:10206000FFF7B8FE0098382101220192FFF7B2FE77
:102070000098019A6B21FFF7ADFE02B080BD000011
:1020800080B582B08DF807008DF806100092FFF73A
:1020900021FED020FFF7FCFD9DF80700FFF738FE7A
:1020A000009A68200621FFF789FD02B080BD00007C
:1020B00041F21801C4F20201086840F014000860FF
:1020C00041F20401C4F20101086820F470000860C4
:1020D000086840F44010086040F60001C4F20101B5
:1020E000086820F470600860086840F44070086078
:1020F0007047000080B500F001F880BD84B000207A
:102100000390029041F20001C4F20201086840F419
:1021100080300860FFE741F20000C4F2020000686E
:1021200000F400300290039801300390FFE7029919
:102130000020019039B9FFE70398B0F5A06018BFFF
:1021400001200190FFE70198C0070028E3D1FFE7D5
:1021500041F20000C4F2020000688003002803D5A9
:10216000FFE70120029002E000200290FFE70298C2
:10217000012851D1FFE742F20001C4F202010868D0
:1021800040F010000860086820F007000860086848
:1021900040F00200086041F20401C4F20201009123
:1021A0000868086008680860086840F48060086093
:1021B000086820F47C100860086840F4E8100860A3
:1021C00041F20001C4F20201086840F0807008602A
:1021D000FFE741F20000C4F202000068800100281D
:1021E00001D4FFE7F5E741F20401C4F202010868F7
:1021F00020F003000860086840F002000860FFE774
:1022000041F20400C4F20200006800F00C0008284B
:1022100001D0FFE7F4E700E0FFE704B070470000FB
:1022200081B041F20001C4F20201086840F480303C
:102230000860FFE741F20000C4F20200006880037A
:10224000002801D4FFE7F5E741F20401C4F20201DE
:102250000091086840F4E0100860086840F400400D
:102260000860086840F480600860086840F48030C6
:10227000086041F20001C4F20201086840F0807079
:102280000860FFE741F20000C4F20200006880012C
:10229000002801D4FFE7F5E741F20401C4F202018E
:1022A000086840F002000860FFE741F20400C4F251
:1022B000020000680007002801D4FFE7F5E741F2BB
:1022C0000001C4F20201086820F001000860FFE785
:1022D00041F20000C4F2020000688007002801D526
:1022E000FFE7F5E701B0704740F2AC00C2F2000032
:1022F000006840B1FFE740F2AC01C2F2000108689B
:1023000001380860FFE7704780B541F20002C4F26F
:102310000202106840F00100106041F20401C4F2B2
:10232000020108680023CFF6FF0318400860106818
:102330004FF6FF73CFF6F66318401060106820F474
:1023400080201060086820F4FE00086041F2080157
:10235000C4F202014FF41F000860FFF7CBFE4EF6F7
:102360000851CEF200014FF00060086080BD00000F
:102370001020C4F200000088C00780B1FFE740F6DB
:102380000C01C4F20101086880F00400086010210B
:10239000C4F20001088820F001000880FFE77047C0
:1023A00081B08DF803009DF8030038B9FFE74FF0C6
:1023B0008041088820F00100088006E04FF080414D
:1023C000088840F001000880FFE701B07047000076
:1023D00080B582B08DF807009DF807101C20009092
:1023E00000F01EF9009800F0C9F802B080BD0000AE
:1023F00081B0ADF80200ADF8001041F21C01C4F24A
:102400000201086840F001000860BDF802000138D0
:102410002821C4F200010880BDF8000001382C21F9
:10242000C4F2000108800C21C4F20001088840F0C9
:102430000100088001B0704781B08DF803009DF85D
:10244000030048B9FFE740F20041C4F200010888E8
:1024500020F00100088008E040F20041C4F20001D1
:10246000088840F001000880FFE701B070470000D5
:1024700040F21040C4F200000088C00788B1FFE7B6
:1024800041F20C01C4F20101086880F400500860B8
:1024900040F21041C4F20001088820F001000880D9
:1024A000FFE7704780B582B08DF807009DF80710F0
:1024B0001D20009000F0B4F8009800F05FF802B022
:1024C00080BD000081B0ADF80200ADF8001041F20F
:1024D0001C01C4F20201086840F002000860BDF867
:1024E0000200013840F22841C4F200010880BDF822
:1024F0000000013840F22C41C4F20001088040F293
:102500000C41C4F20001088840F00100088001B0CD
:102510007047000081B08DF803009DF9030000288A
:1025200012D4FFE79DF9031001F01F020120904033
:102530004A094EF28011CEF2000141F82200BFF3A9
:102540004F8FBFF36F8FFFE701B0704781B08DF8F9
:1025500003009DF9030000280ED4FFE79DF9031046
:1025600001F01F02012090404A094EF20011CEF204
:10257000000141F82200FFE701B0704781B08DF8FB
:1025800003009DF9030000280ED4FFE79DF9031016
:1025900001F01F02012090404A094EF20011CEF2D4
:1025A000000141F82200FFE701B0704781B08DF8CB
:1025B00003009DF9030000280ED4FFE79DF90310E6
:1025C00001F01F02012090404A094EF20021CEF294
:1025D000000141F82200FFE701B0704782B08DF89A
:1025E000070000919DF9070000280AD4FFE7009832
:1025F00000019DF907104EF20042CEF2000288540D
:102600000BE0009800019DF8071001F00F014EF655
:102610001452CEF200028854FFE702B07047000067
:1026200082B08DF8070000919DF9070000280AD4B8
:10263000FFE7009800019DF907104EF20042CEF22C
:10264000000288540BE0009800019DF8071001F08B
:102650000F014EF61452CEF200028854FFE702B08A
:102660007047000080B582B040F2A400C2F20000C2
:10267000006818B9FFE70020019073E040F2B00055
:10268000C2F20000006801F0D9FA00220023C4F26F
:10269000390301F06FFB38B9FFE740F29C01C2F249
:1026A000000164200860FFE740F29C00C2F20000D5
:1026B0000068002853D0FFE740F2B000C2F20000EB
:1026C000006801F0BBFA00224CF20003C4F262037E
:1026D00001F05EFB38B9FFE740F27C01C2F2000175
:1026E00096200860FFE740F2B400C2F200000068E4
:1026F00001F0A4FA00224EF20003C4F2850301F0B7
:1027000047FB38B9FFE740F28001C2F20001C82060
:102710000860FFE740F27C00C2F200000068E8B108
:10272000FFE740F28000C2F200000068B0B1FFE7AE
:10273000C820FEF77BFF40F29C01C2F2000100209E
:10274000086040F27C01C2F20001086040F28001A2
:10275000C2F2000108600120019003E0FFE70020C1
:102760000190FFE7019802B080BD000080B584B001
:1027700000200390FFF754FDFFF79AFC4FF4E1505F
:1027800001904FF47A71FFF733FE019841F28831DE
:10279000FFF798FE01200290FFF71AFE0298FFF75C
:1027A00081FE0298FFF748FEFFF7AAF9FFF750FBFA
:1027B000FFF746FBFFF72AFBFFF738FC3220FEF756
:1027C00035FFFFF733FC4FF4FA70FEF72FFFFFF7EA
:1027D00005F9029840F2A401C2F200010860FFE787
:1027E00040F2A000C2F200000078012809D1FFE702
:1027F000FFF750F940F2A001C2F20001002008707A
:10280000FFE740F20000C2F20000007801280CD17E
:10281000FFE740F60C01C4F20101086820F008004F
:1028200008600020FFF7BCFD0BE040F20000C2F2A0
:102830000000007820B9FFE70120FFF7B1FDFFE7B6
:10284000FFE7CDE75FEA400C08BF91F0000F4FEAC9
:102850008C234FEAC12243EA51514FEA1C5018BF62
:1028600000F5F0404FEA300018BF41F000415FEA48
:102870006C5C00F02980BCF1FF3F08BF40F0804055
:102880007047130C06BF12044FF0100C4FF0000CF1
:10289000130E04BF12020CF1080C130F04BF120137
:1028A0000CF1040C930F04BF92000CF1020CD30F37
:1028B00004BF52000CF1010C11464FF00002A0F1D0
:1028C0001F00A0EB0C00704711F0004F08BF7047CD
:1028D00031F000413FF4D5AF0B0C06BF09044FF0B7
:1028E000100C4FF0000C0B0E04BF09020CF1080C89
:1028F0000B0F04BF09010CF1040C8B0F04BF8900FE
:102900000CF1020CCB0F04BF49000CF1010CCCF10F
:10291000200322FA03F341EA030102FA0CF2A0EBCE
:102920000C0000F10100704723F07F4720F07F4C3E
:1029300080EA030000F00040ACEB070303F57C5392
:1029400003F1FF032DE9804909B44FEA144324EA57
:1029500003484FEA154B25EA0B4E0FF2042606EB0F
:1029600013273E7803FB0667C7F5000707FB06F64B
:102970004FEAD64606F102064FEA543707FB066CCB
:10298000CCF1005C4FEA1C472CEA074C0CFB06F527
:1029900007FB06F404EB15464FEA961649085FEA72
:1029A000320234BF00204FF000404FEAD13706FB1F
:1029B00007FC4FEA1C4C0CFB0BF7D21B03FB0CF77C
:1029C00061EB07010CFB0EF7B0EB074072EB17420F
:1029D0000CFB08F734BFA2EB0742B2EB074261EBF6
:1029E00017414FEA0C444FEA910706FB07FC4FEAF8
:1029F0001C4C0CFB0BF7B0EBC74072EB573203FBE0
:102A00000CF734BFA2EBC742B2EBC74261EB5731C0
:102A10000CFB0EF7B0EBC70072EB57720CFB08F71C
:102A200034BFA2EBC702B2EBC70261EB57714FEAAA
:102A3000816141EA92114FEA826242EA90124FEAC2
:102A4000806004EBCC04039F4FEAD13706FB07FC00
:102A50004FEA1C4C0CFB0BF7D21B03FB0CF761EB92
:102A600007010CFB0EF7B0EB074072EB17420CFBB3
:102A700008F734BFA2EB0742B2EB074261EB174104
:102A80004FEA8C5504EB9C244FEA910706FB07FCA8
:102A90004FEA1C4C0CFB0BF7B0EBC74072EB573204
:102AA00003FB0CF734BFA2EBC742B2EBC74261EBAA
:102AB00057310CFB0EF7B0EBC70072EB57720CFBF3
:102AC00008F734BFA2EBC702B2EBC70261EB577144
:102AD0004FEA816141EA92114FEA826242EA901222
:102AE0004FEA806015EB4C2544F100044FEAD137E2
:102AF00006FB07FC4FEA1C4C0CFB0BF7D21B03FB3D
:102B00000CF761EB07010CFB0EF7B0EB074072EB23
:102B100017420CFB08F734BFA2EB0742B2EB0742A7
:102B200061EB17414FEA813141EA92414FEA82322B
:102B300042EA90424FEA80304FEA0C7615EB1C15C2
:102B400044F1000448EA03434EEA0B484FF0000EFC
:102B5000B2EB080C71EB030724BF624639464EEB1B
:102B60000E0E4FF0000B0018524149414BEB0B0B7E
:102B7000B2EB080C71EB03077BF1000B24BF62463C
:102B800039464EEB0E0E4FF0000B001852414941F2
:102B90004BEB0B0BB2EB080C71EB03077BF1000B5B
:102BA00024BF624639464EEB0E0E51EA020718BFAB
:102BB00046F0010616EB0E7655F1000254F10001C5
:102BC00003D5BDE88901BDE80088BDE88901BDE8FD
:102BD0000048B619524141EB0101A3F101037047CE
:102BE00080807F7E7D7C7B7A79787776767574734A
:102BF000727171706F6E6E6D6C6C6B6A6A69686809
:102C0000676666656464636362616160605F5F5E9E
:102C10005E5D5D5C5C5B5B5A5A5959585857575614
:102C20005655555554545353525252515150505079
:102C30004F4F4F4E4E4D4D4D4C4C4C4B4B4B4A4ACB
:102C40004A4949494848484747474746464645450F
:102C50004544444444434343434242424241414148
:102C60009C46002B30D477002BD04FEA37071CB599
:102C700003B44FF010004FF01001BAF1000F06D06E
:102C8000BCF1000FDCBF40F0080040F008014FF03D
:102C900000000FBCBDE810400BF1010BBBF1010FB0
:102CA00008BF5FEA170722BF12F1010211F101010B
:102CB0004FF0004143F1000300F0004043EA000000
:102CC0007047F9D35708D0E746EA06464FEA16465A
:102CD00013F1400F1FDD13F1200FDFBF16430A462B
:102CE000002120335B42BED0C3F1200746EA0646EE
:102CF0004FEA164602FA07F746EA070622FA03F2F7
:102D0000C3F1200701FA07F742EA070221FA03F1AB
:102D10004FF00003A7E746EA020646EA06464FEAF6
:102D2000164646EA0106BCBF46EA0646360C4FF098
:102D300000034FF000024FF0000194E72DE9804CB2
:102D400070B49A46934691E8380007C831EA400CBF
:102D500048BF34EA430C03D5FFF7E6FDFFF780FFD9
:102D6000F0BCBDE8008C2DE9804C70B49A469346C7
:102D700091E8380007C810F0804F08BF13F0804F6B
:102D800003D100F005F8FFF76BFFF0BCBDE8008C45
:102D900020F07F4723F07F4C80EA030000F00040E2
:102DA00007EB0C03A3F57C53A3F1FE0392F0000F95
:102DB00000F0B38095F0000F00F077802DE9014915
:102DC0004FEA114021EA00484FEA144624EA064738
:102DD00000FB06FC08FB06F607FB08F818EB0648A4
:102DE0004CEB164C00FB07F718EB07484CEB174071
:102DF0004FEA124B22EA0B4E4FEA154625EA0647E8
:102E00000BFB06FC0EFB06F607FB0EFE1EEB064E4A
:102E10004CEB164C0BFB07F71EEB074E4CEB174B1E
:102E200018EB0B0840F1000018EB0E0B58EB0008F4
:102E300040F100008F1A4FF000014FF000063CBF38
:102E4000C943661B14BFB5EB040C00213CBFC9434A
:102E5000F61B4FEA174427EA04454FEA1C472CEAC1
:102E6000074C04FB076205FB07F70CFB05F616EBA6
:102E7000074642EB174204FB0CFC16EB0C4642EBF8
:102E80001C421BEB060658EB020241414EEA8E0E35
:102E900046EA9E0601D5BDE80189B619524141EBCB
:102EA0000101A3F10103BDE801894FEA144524EAB9
:102EB00005464FEA114721EA074C05FB07F406FBDC
:102EC00007F70CFB06F111EB074144EB174405FB38
:102ED0000CFC11EB0C4144EB1C444FEA124722EA74
:102EE000074C05FB07F206FB07F70CFB06F616EB93
:102EF000074642EB174205FB0CFC16EB0C4642EB77
:102F00001C456A1854F1000148BF7047B619524178
:102F100041EB0101A3F10103704795F0000F37D099
:102F20004FEA114221EA02464FEA144724EA074CCD
:102F300002FB07F106FB07F70CFB06F414EB074452
:102F400041EB174102FB0CFC14EB0C4441EB1C4120
:102F50004FEA154725EA074C02FB07F506FB07F782
:102F60000CFB06F616EB074645EB174502FB0CFC7F
:102F700016EB0C4645EB1C42121951F1000148BFFB
:102F80007047B619524141EB0101A3F101037047AB
:102F90004FEA144524EA05464FEA114721EA074C57
:102FA00005FB07F106FB07F70CFB06F212EB0742E5
:102FB00041EB174105FB0CFC12EB0C4251EB1C41A1
:102FC0004FF0000648BF7047921841EB0101A3F192
:102FD00001037047490050EAC12018BF04204A0D80
:102FE00018BF40F0010040F2FF72B2EB515F08BF22
:102FF00040F00200012808BF0520704730380A2839
:1030000001D201207047002070472DE9F0410646AB
:103010000F4600F03FFC041E0D4618BF0120284358
:1030200020F00040C0F17F6000F1E040C00F0ED002
:10303000301C18BF0120384320F00040C0F17F60F1
:1030400000F1E040C00F04BF0120FDF711FA204657
:103050002946BDE8F081000010B500290AD00878A3
:10306000002807D005487844FEF798FA002801D0D8
:10307000002010BD0248784410BD0000321100004D
:103080002A11000010B500290AD00878002807D0BE
:1030900005487844FEF782FA002801D0002010BDD0
:1030A0000248784410BD0000221100001A110000EF
:1030B00021F0004201F00043A2F16052B2F5801FFE
:1030C00028BFD2F17F6C0BD95FEA001C43EAC20231
:1030D00042EB507018BF704728BF20F001007047C6
:1030E000B2F5801FBCBF184670474FEA410C1CF573
:1030F000001F02D2084600F038BF70B500F076FB22
:1031000000000089FFF7F6BF4FF00040A0F58000F7
:103110007047000010B591EA030F48BF83F00043E9
:1031200000F1A684841A71EB030C05D2121943EB4B
:103130000C03001B61EB0C014FEA1154A4EB135C70
:10314000DFF81CE11EEA430F18BF9EEA445F00F05F
:10315000748021EA045123EA0E0343F48013DCF166
:10316000200E32D322FA0CFE10EB0E0023FA0CFED6
:1031700041EB0E01CCF1200E03FA0EFE10EB0E0017
:10318000CCF1200E51F10001B1F5801F32D201EBDC
:10319000045112FA0EF2BDE8104058BF7047401CAF
:1031A00038BF5FEA420218BF7047002814BF20F002
:1031B000010041F100014FEA410313F5001F38BF40
:1031C0007047A1F1C04100F05FBB012A43EB03024D
:1031D000ACF1200CDCF11F0E32BF4FF0000E23FAD1
:1031E0000CF310EB030041EB0451B4EB115FD0D0B2
:1031F000A1EB045101F58011490801EB04515FEA8C
:1032000030000ED350F1000038BF12FA0EFE08D184
:10321000BDE81040C9E7401C38BF5FEA4202CAD18E
:10322000C3E7BDE810404FEA410313F5001F38BF64
:103230007047A1F1C04100F027BB9EEA445F08D06F
:1032400011EA5E0FBDE8104004BF01F0004100200C
:103250007047BDE8104070B500F0C8FA64FBBE3E90
:103260000000E0FF491058BFC1F140415B1058BF5A
:10327000C3F140438B42EFF3008070472DE9C0411A
:1032800030B4DFF8A4C23CEA111418BF3CEA1314AE
:1032900000F0ED801CEA111481EA030544EAD574BC
:1032A00018BF1CEA131500F0C880A4EB050404F154
:1032B0007F7404F500344FF0004545EAC12145EA2A
:1032C000C32341EA505143EA52534FEAC0204FEA28
:1032D000C222994208BF904200F09D804FEA1365D8
:1032E0000FF24416765D4FEA134506FB05F7C7F16A
:1032F000807706FB07F74FEAD737A7FB03687642CC
:10330000A7FB06CEC8F5803838BFA8F1010807FB37
:1033100008E6A6FB028C4FF0000EE6FB03CEDCF1C4
:10332000000CCEF1004E38BFAEF1010EA6FB0C58DA
:103330004FF00007E6FB0E87A1FB08C6A0FB07CEF7
:1033400016EB0E064FF0000545F10005E1FB0765A1
:1033500015F1E04E7EBFA4F580345FEA46066D416C
:1033600016F1800745F100054FEA172747EA056780
:103370004FEA15254FEA0666A6F1DE46B6F1805FF4
:1033800020D9384605EBC47124F0010C01EB0C1177
:10339000BCF1FE6F02D8F0BCBDE8008124425CBFE6
:1033A00001F5801E9EEAC47F02D4F0BCBDE8008116
:1033B000244200F13980A1F1C041F0BCBDE80041D8
:1033C00000F062BA4FEAD02040EA41504FEAD121E2
:1033D0004FEAD22242EA43524FEAD323A7FB0286A6
:1033E00007FB036605FB02661EEA0E0F58BFA6EB3D
:1033F0000056B6EB00564FEA520E4EEAC37E18EB6B
:103400000E0E56EB530EBCD518EB02085E417F1C26
:1034100055F10005B5E74FF480154FF000074FF068
:1034200000064FF00008ACE701F1C04101F0004197
:103430004FF00000F0BCBDE800810CEA131511EA62
:103440000C1F00D00CE013EA0C1F00F026804FF098
:10345000000081EA030101F00041F0BCBDE80081F9
:10346000F0BCBDE8004181EA030100F00DBAF0BCF8
:10347000BDE8004170B500F0B9F900BF097EFC3E1F
:1034800000F007B84FF0000081EA030101F00041AD
:10349000704781EA030100F0F7B9F0BCBDE80041D4
:1034A00022494FF000007047FFFDFBF9F7F5F4F2F9
:1034B000F0EEEDEBE9E8E6E4E3E1E0DEDDDBDAD8CF
:1034C000D7D5D4D3D1D0CFCDCCCBCAC8C7C6C5C42D
:1034D000C2C1C0BFBEBDBCBBBAB9B8B7B6B5B4B344
:1034E000B2B1B0AFAEADACABAAA9A8A8A7A6A5A42F
:1034F000A3A3A2A1A09F9F9E9D9C9C9B9A999998F3
:103500009797969595949393929191908F8F8E8E95
:103510008D8C8C8B8B8A8989888887878685858422
:1035200084838382828181800000FF070000F87F0E
:1035300051EA030C17D41CF5801F58BFBCF5801F3F
:1035400000F10680994218BF704708BF904270474B
:1035500007D711F5801F58BF13F5801F19D4994262
:103560007047894270471CF5801F08D5BCF5801F45
:10357000F7D58B4218BF704708BF824270474FF49F
:10358000001C1CEB410F38BF1CEB430F01D28B42D8
:10359000704770B500F02AF9922449004FF00051AD
:1035A0004FF08053FFF75EBE51EA030C17D41CF5B1
:1035B000801F58BFBCF5801F00F10680994218BFDC
:1035C000704708BF9042704707D711F5801F58BF5A
:1035D00013F5801F19D499427047894270471CF532
:1035E000801F08D5BCF5801FF7D58B4218BF7047E8
:1035F00008BF824270474FF4001C1CEB410F38BFDC
:103600001CEB430F01D28B42704770B500F0EEF80F
:10361000922449004FF080514FF00053FFF722BE33
:1036200051EA030C17D41CF5801F58BFBCF5801F4E
:1036300000F10680994218BF704708BF904270475A
:1036400007D711F5801F58BF13F5801F19D4994271
:103650007047894270471CF5801F08D5BCF5801F54
:10366000F7D58B4218BF704708BF824270474FF4AE
:10367000001C1CEB410F38BF1CEB430F01D28B42E7
:10368000704770B500F0B2F8922449004FF0005135
:103690004FF08053FFF7E6BD70B5DFF848C11CEA74
:1036A000111E1EBF1CEA13159EEA0C0F95EA0C0FA3
:1036B00000F06F8081EA03044EEAD47EAE4421EA32
:1036C0004C1123EA4C1341F4801143F48013AEF102
:1036D0007F7EA1FB024CA0FB0365361955EB0C0560
:1036E000A1FB034C4CF10003A0FB021C16EB0C06E3
:1036F000654153F10003094218BF46F0010613F477
:10370000007F0BD14FEA03314FEA053041EA1551F2
:1037100040EA165034036FF003020AE04FEAC32177
:103720004FEAC52041EA555140EA5650F4026FF085
:10373000020202EB2E4201EB025585EACE710AD05D
:103740005FEA440C18BF24F0004450F1000041F13E
:10375000000120EAD47040F2FE7C624500D270BDC8
:10376000A84214BF4FF080444FF04044002E08BFE1
:103770000024BEF1806FA8BFA1F1C041BDE8704038
:1037800080F2828001F1C04101F000414FF0000061
:1037900070470CEA13159EEA0C0F18BF95EA0C0F40
:1037A00006D081EA030E4FF000000EF0004170BD1C
:1037B00000F01CF88900013E00F007B800F009B8DD
:1037C0004FEA430C5FEA5C5C08D081EA030100F039
:1037D0005BB84FEA410C5FEA5C5CF6D102494FF0FE
:1037E000000070470000FF070000F87F0EF1020E96
:1037F0002EF0030E5EF8046B364205D4012A43EB2B
:10380000030515F5001F12D8012841EB010C1CF52A
:10381000001F0CD80ED14FEAD17C0CEB4C0C0CF1F4
:10382000020C15F5001F08BF4CEBD37C04E04FF0F1
:10383000080C01E04FEAD37C0CEB4C0526FA05F6A8
:1038400006F00706B6F1040C06D20EEB860CBDE8B6
:1038500070404CF0010C6047DFE80CF0090B0202ED
:103860004FF00041A1F500214FF0000070BD194656
:103870001046012851EB010418BFD4F5001484BF91
:10388000002001F0004170BD0808A0F500114FEACA
:10389000310170472DE9F04101F5801CBCF5001F96
:1038A000C0F2C3804FEA115C21EA0C5141F480114F
:1038B0000CF1FD0C5FEA5C0C0CF5C07C01D3400000
:1038C0004941890241EA905187023BA48E0EA45DD2
:1038D0000A0C04FB04F602FB06F6C6F14046A4FB04
:1038E0000662F60D46EA422606FB06F4A4FB012317
:1038F0005242C3F1404338BF5B1EA6FB0242002484
:10390000E6FB0324D20B42EA4446A6FB0623A1FBB6
:1039100002E2A3FB07E4A4184FF0000252F10002F8
:10392000E3FB01426442C2F1404E38BFAEF1010EEA
:10393000A6FB04234FF00002E6FB0E32A2FB034677
:10394000B6194FF0000454F10004E2FB0264A1FB3D
:1039500006E6A4FB07E816EB08064FF0000858F14E
:103960000008E4FB01687642C8F1405838BFA8F16E
:103970000108A2FB06E4A3FB08E52D194FF00004A3
:1039800054F10004E2FB0854A1FB05E6A7FB04E8A0
:1039900018EB06084FF0000656F10006E1FB04861E
:1039A00018F1200556F10006A80940EA8660B10921
:1039B000A8F11B0808F03F08B8F10A0F1CD901EB69
:1039C0000C51BDE8F08100BFFCF5EEE8E2DDD8D394
:1039D000CFCBC7C3C0BDB9B6B4B1AEACA9A7A5A380
:1039E000A19F9D9B9A9896959392908F8D8C8B8991
:1039F0008887868584838281A0FB006800FB01F2B2
:103A000008EB4208B8EB872807D5341858EB0104B7
:103A1000D5D5401C51F10001D1E7341A78EB0104EF
:103A2000CDD4401E71F10001C9E75FEA4C0C5FEA9A
:103A30009C5C0DD105D301F000414FF00000BDE8C2
:103A4000F081BDE8F04170B5FFF7D0FE6DDBFFBE41
:103A5000BDE8F04101494FF0000070470000F87FD9
:103A600010B591EA030F48BF83F000433FF55AAB0E
:103A7000841A71EB030C07D28CF0004C121943EB43
:103A80000C03001B61EB0C014FEA1154A4EB135C17
:103A9000DFF8A4E11EEA430F18BF9EEA445F00F07E
:103AA000B48021EA045123EA6E035242C3EB6E0351
:103AB00038BF5B1EDCF1200E25D322FA0CFE10EB82
:103AC0000E0043FA0CFE41EB0E01CCF1200E03FA7E
:103AD0000EFE10EB0E00CCF1200E51F1000129D4A6
:103AE00001EB045112FA0EF2BDE8104058BF7047C6
:103AF000401C1CBFB2F1004F704700280CBF491C8E
:103B000020F00100704712EB020E43EB030218BFD6
:103B10004FF0010E4EEA4202ACF1200CDCF11E0E19
:103B200056D943FA0CFE10EB0E00CCF11E0E51F1EB
:103B3000FF31D5D50EF1010E12FA0EFE404141EBD8
:103B4000010101EB445C5FEA5C5C10D901EB0451BC
:103B500010EBDE7038BFBEF1004FBDE8104018BF5B
:103B6000704700280CBF491C20F00100704734D278
:103B70004FEAD42C24F4006411F500111BD0B1FAE3
:103B800081F20B3AA41AA41ED2F12003914030FA1C
:103B900003F31943904001EBCC7101EB0451002C6D
:103BA000BDE81040A8BF704701F1C04101F00041DD
:103BB0004FF000007047B0FA80F310FA03F102D121
:103BC000BDE810407047E41A173C4805C90AE2E70F
:103BD00001EB0451BDE81040704749104FEA300036
:103BE00001EB0451BDE8104002E04FF000017047C6
:103BF0004A0008BF0042F8D0B2F5001F28BF704746
:103C000001F000414FF0000070479EEA445F07D08A
:103C100011EA5E0FBDE8104004BF0021002070478C
:103C2000BDE8104070B5FFF7E1FD00BF40DFF63E94
:103C3000104683F0004170470000E0FF43004FEA68
:103C4000D30C4FEA3C0C43401FBF40070CF16051BE
:103C500013F0FE4F70471CF0006F03D10CF00041D1
:103C6000002070470CF0004343EA507040EACC005B
:103C700010B500F034F900BF000000924FEA0001D7
:103C8000FFF702BE4FF00041A1F500214FF0000008
:103C90007047000090EA010F48BF81F0004100F139
:103CA0007081421A3CBF801A89184FEAD052A2EBA9
:103CB000D1534FF07F4C1CEA410F18BF9CEA026FB2
:103CC00000F03B804FF0004C4CEA00204CEA012110
:103CD00021FA03FC10EB0C0C1ED202F1FF325FEA5A
:103CE0001C2040EBC25038BF70471CF07F0F4FEADA
:103CF000400C18BFBCF17F4F38BF7047C3F12003A1
:103D0000994008BF20F00100BCF17F4F38BF7047D9
:103D1000A0F1C04000F029B94FEA3C00000A40EB96
:103D2000C25028BF1CF0FF0F4FEA400CE6D018BF6E
:103D3000BCF17F4F38BF7047EAE79CEA026F05D0BD
:103D400010EA5C0F08BF00F00040704710B500F0AB
:103D5000C6F800BF64FBBE3E10B5FFF7E9FB0CBF21
:103D60000120002010BD10B5FFF7E2FB14BF0120B9
:103D7000002010BD10B5FFF717FC8CBF01200020FC
:103D800010BD10B5FFF710FC2CBF0120002010BDA6
:103D900010B5FFF745FC94BF0120002010BD10B501
:103DA000FFF73EFC34BF0120002010BD10F00041A1
:103DB00048BF4042B0FA80F310FA03F2C3F19D030A
:103DC0000BD051EAC35101EB1220530638BF7047A4
:103DD00000F1010008BF20F0010070474FF47F0C94
:103DE0001CEAD0121EBF1CEAD11392EA0C0F93EA10
:103DF0000C0F00F0478090EA010F48BF42F4807238
:103E00004FF0004C4CEA00204CEA012102EB030287
:103E1000A0FB0113A2F50002002918BF43F0010323
:103E20005B0028BF4FEA330342EB22425FEA132CC8
:103E30004CEBC2502EBFBCEB436FB2F57C0F70470A
:103E40004FEA036CBCF1004F08BF20F00100B2F54F
:103E50007C0F38BF70470BD582F0FF0212F5803F10
:103E6000C8BF704700F1C040D8BF00F000407047A5
:103E700000F5000C5FEA4C0C48BF7047B0F1C04041
:103E800000F073B80CEAD11390EA010F48BF42F476
:103E90008072624538BF634504D280EA010000F0B9
:103EA0000040704710B500F01AF800BF8900013ECD
:103EB00000F007B800F009B85FEA410C5FEA1C6C3B
:103EC00008D080EA010000F050B85FEA400C5FEAD9
:103ED0001C6CF6D14FF00040A0F5800070470EF149
:103EE000020E2EF0030E5EF8044B244204D44FEA77
:103EF0004102B2F17F4F11D84FEA4003B3F17F4F37
:103F00000CD80ED14FEAD07C0CEB4C0C0CF1020C0F
:103F1000B2F17F4F08BF4CEBD17C04E04FF0080CAE
:103F200001E04FEAD17C0CEB4C0324FA03F404F0DB
:103F30000704B4F1040C06D20EEB840CBDE810406B
:103F40004CF0010C6047DFE80CF0070802024FF06C
:103F50000040A0F5800010BD0846420018BFD2F115
:103F6000807288BF00F0004010BDFF2141EAD050B0
:103F7000C005704790EA010F48BF81F000413FF54E
:103F800090AE421A04D882F00042A0EB0200114425
:103F90004FEAD052A2EBD1534FF07F4C1CEA410FB5
:103FA00018BF9CEA026F4AD04FF0004C4CEA002048
:103FB0004CEA012121FA03FCB0EB0C0C0FD412F0F7
:103FC000FE0F36D05FEA4C001DD5001240EBC25008
:103FD00038BF70471CF03F0F18BF70470BE05FEA17
:103FE0001C20A2F1010240EBC25038BF70471CF008
:103FF0007F0F18BF7047C3F12003994014BF401EC4
:1040000020F0010070474FEA1223800808BF704774
:10401000B0FA80FCA2EB0C02CCF1280C60FA0CF098
:1040200093EA122F04BF00EBC25070474FEAC370EF
:104030007047130A5FEADC1008BF7047F6E79CEA96
:10404000026F04D010EA5C0F08BF0020704710B563
:10405000FFF745FF40DFF63E81F000407047FCF778
:1040600057BEFCF78BBF00000000000000000000FE
:10407000303132333435363738394142434445469E
:104080004030580030313233343536373839616298
:10409000636465664030780004000008000000009A
:1040A0000000000200010000103031323334353698
:1040B0003738396162636465667870003031323355
:1040C000343536373839414243444546585000006C
:1040D00002400000000000A00000000005400000B9
:1040E000000000C8000000000C4000000000409CE0
:1040F00000000000194000000020BCBE00000000CD
:1041000034400000BFC91B8E00000004B540000011
:10411000504BCFD06607E2CF010000006C41000099
:104120003E8251AADFEEA73401000000D942000010
:10413000DCB5A0E23A301F97FFFFFFFFB445000057
:10414000FD25A0C8E9A3C14FFFFFFFFFFF3F00000F
:104150000000008000000000FF3F00000000008021
:10416000000000006163633A20006779726F3A20B3
:1041700000252E3266000000C44200080000002026
:104180000400000050010008C84200080800002098
:10419000B0060000700100081C0000004300000091
:1041A000F8FFFFFF0C0000000E0000000F000000F1
:1041B0002E0000001001000043000000F8FFFFFF88
:1041C000004040404040404040404141414141402A
:1041D00040404040404040404040404040404040DF
:1041E000400502020202020202020202020202026E
:1041F0000220202020202020202020020202020273
:1042000002029090909090901010101010101010CA
:1042100010101010101010101010101002020202D6
:10422000020288888888888808080808080808081A
:104230000808080808080808080808080202020216
:10424000400000000000000000000000000000002E
:10425000000000000000000000000000000000005E
:10426000000000000000000000000000000000004E
:10427000000000000000000000000000000000003E
:10428000000000000000000000000000000000002E
:10429000000000000000000000000000000000001E
:1042A000000000000000000000000000000000000E
:1042B00000000000000000000000000000000000FE
:0842C0000000000001000000F5
:040000050800026984
:00000001FF
